:060000000A128A110C280F
:10000800FE00030EF0000A08F1000A128A11722E8F
:100018000A128A110F280A128A11F3260A128A1163
:10002800BE00B001B101B201B301B401B501B6011E
:10003800B701B801B901BA01BB01BC01BD01FA01A0
:10004800FB0183010A128A11852B83120313A7006F
:1000580010303C06031D3128322874280F30B600B2
:100068000030B7000130B4000030B500FA01FB01E0
:10007800BA01BB01B801B901FF30A5002508A700E6
:10008800B201B3018030A5002508F60023300A121A
:100098008A1125260A128A11C03083120313A5007B
:1000A8002508F60079300A128A1125260A128A11C3
:1000B800C83083120313A5002508F9003A300A1244
:1000C8008A11A9260A128A11D03083120313A500B7
:1000D8002508F60034300A128A1125260A128A11D8
:1000E8002A3083120313270603197B287C28ED285E
:1000F80023302706031981288228ED28270A0319A7
:1001080086288728ED280130FA070318FB0A0030F3
:10011800FB077B08803AFF0080307F02031D96288A
:1001280003307A02031899289A28B62883120313F1
:100138003B08F3003A08F2000A30F4000030F500FA
:100148000A128A114D260A128A11831203132708EC
:100158007207BA000030031801307307BB00B20100
:10016800B301ED287B08803AFF0080307F02031D31
:10017800BF2803307A02031CC228C328ED287B0855
:10018800803AFF0080307F02031DCC2805307A02B8
:100198000318CF28D028ED28831203133908F30059
:1001A8003808F2000A30F4000030F5000A128A110B
:1001B8004D260A128A118312031327087207B80002
:1001C8000030031801307307B9000130B200003065
:1001D800B3002A30831203132706031DF428F528D9
:1001E80029297B08803AFF0080307F02031DFE2802
:1001F80003307A02031801290229092983120313FB
:10020800BA01BB01FA01FB0129297B08803AFF00EA
:1002180080307F02031D122903307A02031C15293E
:10022800162929297B08803AFF0080307F02031DA8
:100238001F2905307A020318222923292929831224
:100248000313B801B901FA01FB0123308312031328
:100258002706031D302931293E290A128A11CE2684
:100268000A128A11033083120313A5002508BD0062
:10027800071512150130B6070318B70A0030B7077B
:10028800103036063704031D4A294B29C129B60107
:10029800B701340835040319522954290130552966
:1002A8000030A500A6012508B4002608B500C9300D
:1002B800A5002508F9000A30F2000030F3003B08D9
:1002C800F5003A08F4000A128A1178240A128A11F1
:1002D8007208303E0A128A11A9260A128A11CA30F7
:1002E80083120313A5002508F9000A30F200003034
:1002F800F3003B08F5003A08F4000A128A11442575
:100308000A128A117208303E0A128A11A9260A12A4
:100318008A11C63083120313A5002508F9000A3094
:10032800F2000030F3003908F5003808F4000A122A
:100338008A1178240A128A117208303E0A128A1128
:10034800A9260A128A11C73083120313A5002508AB
:10035800F9000A30F2000030F3003908F5003808D7
:10036800F4000A128A1144250A128A117208303ED2
:100378000A128A11A9260A128A1183120313340851
:1003880035040319C829C929ED29E029C930A50070
:100398002508F6000F300A128A1125260A128A113A
:1003A800ED29C630A5002508F6000F300A128A117B
:1003B80025260A128A11ED293308003A0319E5297E
:1003C800ED293208003A0319CA29013A0319D52937
:1003D800ED290800831203138811081588140814DE
:1003E8006430F2000030F300FF30F2070318F30A1C
:1003F800FF30F307720A031D052A730A031D052A35
:10040800062AF8298312031306180B2A0C2A0E2A27
:100418000130992A8618112A122A142A0230992A98
:100428000619172A182A1A2A0330992A8815081132
:10043800881408146430F2000030F300FF30F2072B
:100448000318F30AFF30F307720A031D2F2A730AF1
:10045800031D2F2A302A222A831203130618352A4D
:10046800362A382A0430992A86183B2A3C2A3E2AFA
:100478000530992A0619412A422A442A0630992A1F
:1004880088150815881008146430F2000030F3004D
:10049800FF30F2070318F30AFF30F307720A031D4F
:1004A800592A730A031D592A5A2A4C2A83120313FC
:1004B80006185F2A602A622A0730992A8618652A50
:1004C800662A682A0830992A06196B2A6C2A6E2A25
:1004D8000930992A88150815881408106430F20024
:1004E8000030F300FF30F2070318F30AFF30F30778
:1004F800720A031D832A730A031D832A842A762A13
:10050800831203130618892A8A2A8C2A2A30992AE0
:1005180086188F2A902A922A0030992A0619952A35
:0C052800962A982A2330992AFF300800F8
:1006000003308A000408840A82070034203420342E
:1006100050346F3477346534723469346E346734EF
:1006200020344F344E3420342034203400342034ED
:100630004D346934633472346F34773461347634D2
:10064000653420344F34763465346E3420340034CD
:100650005334453454342034543449344D344534BF
:10066000203428344D344D343A34533453342934FF
:1006700000342A343A3443344C344534413452340F
:100680002034203423343A3445344E345434453401
:1006900052340034203450346F347734653472343B
:1006A00020343D342034393430343034573420341D
:1006B000003433342E3443346F346E34763465343E
:1006C0006334743469346F346E34003432342E340D
:1006D0004734723469346C346C34003431342E3421
:1006E0004D346934633472346F34003434342E340E
:1006F00053347434613472347434003454344934AF
:100700004D3445342D34203400340A128A11912698
:100710000A128A110A128A1105240A128A110A126F
:100720008A11CE260A128A1183120313BD01BD0A53
:1007300001300A128A11D3250A128A118312031377
:10074000AC002C08AF0002303D06031DA82BA92BDE
:10075000AA2BE92B2F03031DAE2BAF2BE92B023065
:10076000AC002C08BD001030AC002C08BC000A12F4
:100770008A11CE260A128A11C03083120313AC00EC
:100780002C08F60045300A128A1125260A128A1111
:100790004D3083120313AE001930AD004F30AC0062
:1007A000AC0BD02BAD0BD02BAE0BD02B0A128A1179
:1007B000CE260A128A11E92B0A128A11FC250A1286
:1007C0008A11FB2B2F080A128A1129200A128A117A
:1007D000FB2B831203133D08AC00AD012D08003A3A
:1007E0000319F32BFB2B2C08013A0319DC2B033ADA
:1007F0000319E22BFB2B0F3083120313AC002C08E0
:10080000BC00982B0A128A110C2883120313A8012A
:10081000A901831203132808803EA5002508F900CA
:10082000FF300A128A11A9260A128A110130831296
:100830000313A8070318A90A0030A9072908803A5A
:10084000FF0080307F02031D272C10302802031C7C
:100850002A2C2B2C092CC03083120313A500250849
:10086000F60001300A128A1125260A128A119030E8
:1008700083120313A5002508F60012300A128A110C
:1008800025260A128A1183120313AA01AB018312CF
:1008900003132A08D03EA5002508F900FF300A12EC
:1008A0008A11A9260A128A11013083120313AA079A
:1008B0000318AB0A0030AB072B08803AFF008030EA
:1008C0007F02031D652C10302A02031C682C692C42
:1008D000472C4D3083120313A7001930A6004F3068
:1008E000A500A50B712CA60B712CA70B712C080071
:1008F00083120313A101F31F7E2C7F2C862CF20997
:10090000F309F20A0319F30AA101A10AF51F892CC0
:100910008A2C932CF409F509F40A0319F50A01301D
:10092000F6007608A106A201A30172087304031958
:100930009A2C9B2CD22CA001A00AA92C01300310C8
:10094000F20DF30DFF3E031D9F2C0130F6007608DB
:10095000A007F31FAC2CAD2C9E2C01300310A20D70
:10096000A30DFF3E031DAE2C73087502031DBA2CA8
:1009700072087402031CBD2CBE2CC52C7208F40234
:100980007308031CF503F502221401300310F30C65
:10099000F20CFF3E031DC62C0130A002031DD12C1A
:1009A000D22CAD2C21080319D62CD72CDC2CA20973
:1009B000A309A20A0319A30A2308F3002208F200DC
:1009C0000800C330F700CD30F600F60BE52CF70B2E
:1009D000E52CF20133300A128A119D250A128A1180
:1009E0001B30F7009E30F600F60BF42CF70BF42CBE
:1009F0000000F20133300A128A119D250A128A1171
:100A0000A630F600F60B022D0000F20133300A1278
:100A10008A119D250A128A110D2D0E2D0000F2015A
:100A200002300A128A119D250A128A11A630F60098
:100A3000F60B182D0000F20128300A128A119D25AC
:100A40000A128A11A630F600F60B242D0000F201DE
:100A500001300A128A119D250A128A110430F7000A
:100A60003D30F600F60B322DF70B322D372DF2010B
:100A70000C300A128A119D250A128A11A630F6003E
:100A8000F60B402D00000800F801F51F482D492DF8
:100A9000502DF409F509F40A0319F50AF801F80ACA
:100AA000F31F532D542D592DF209F309F20A03199E
:100AB000F30A7208730403195E2D5F2D8E2DF70162
:100AC000F70A6D2D01300310F20DF30DFF3E031DEB
:100AD000632D0130F6007608F707F31F702D712D96
:100AE000622D73087502031D772D72087402031CB2
:100AF0007A2D7B2D812D7208F4027308031CF503F7
:100B0000F50201300310F30CF20CFF3E031D822DA1
:100B10000130F702031D8D2D8E2D712D78080319DC
:100B2000922D932D982DF409F509F40A0319F50A6D
:100B30007508F3007408F2000800F5007218A12D82
:100B4000A52D831203130915A82D83120313091170
:100B50007508F03988008914A630F300F30BAE2D28
:100B6000000083120313891075080F39F300033056
:100B70000310F30DFF3E031DB82D0310730D880005
:100B80008914A630F300F30BC32D00008312031366
:100B900089101B30F4009E30F300F30BCD2DF40BC5
:100BA000CD2D00000800F5000A128A11EE210A126C
:100BB0008A11F4007408F6007508031DE02DE12D7C
:100BC000E32D7608FB2D760A0319E72DE82DF12D8C
:100BD000831203133E080319EE2DEF2DF12DBE01F4
:100BE000E12D760A031DF52DF62DFA2D8312031340
:100BF000BE01BE0AFF3008008030F9007908F60017
:100C000069300A128A1125260A128A11C030F900A9
:100C10007908F60061300A128A1125260A128A1113
:100C20009030F9007908F60054300A128A1125260E
:100C30000A128A11D030F9007908F60071300A12D0
:100C40008A1125260A128A110800F800F201760896
:100C50000A128A119D250A128A11402EF201F20A07
:100C6000780884000A128A1100230A128A110A12D3
:100C70008A119D250A128A110130F7007708F807BA
:100C8000780884000A128A1100230A128A11003A95
:100C9000031D4B2E4C2E2E2E0800F601F701721C60
:100CA000522E532E592E7408F6070318F70A7508AA
:100CB000F70701300310F40DF50DFF3E031D5A2E0A
:100CC00001300310F30CF20CFF3E031D612E72087D
:100CD0007304031D6C2E6D2E4F2E7708F3007608DB
:100CE000F2000800831203138C1C772E782E8A2EB4
:100CF0000130B0070318B10A0030B107C430300624
:100D0000093003193106031D862E872E892EB00166
:100D1000B1018C1071088A00700E8300FE0E7E0EE9
:100D200009000A128A11E8260A128A110A128A1187
:100D3000BE260A128A110A128A11DB260A128A11A9
:100D40000B178B1783160313071183120313071155
:100D5000080083120313A400F20179080A128A1111
:100D60009D250A128A11F201F20A83120313240844
:100D70000A128A119D250A128A110800831603138C
:100D80000608073886000808F039880081138312A6
:100D9000031388150815881408140800F20101309F
:100DA0000A128A119D250A128A11A630F600F60B46
:100DB000D72E000008008312031312149214FA3085
:100DC0008316031392008C1483120313121108006C
:100DD000831603138801091189100A128A11E1246C
:080DE0000A128A110800013417
:02400E00FB3F76
:00000001FF
